:020000040800F2
:10000000008001209D4A0008D9140008DD14000872
:10001000E1140008E5140008E914000800000000DD
:10002000000000000000000000000000ED140008C7
:10003000F114000800000000F5140008F91400088D
:10004000ED4A0008ED4A0008ED4A0008ED4A0008B4
:10005000ED4A0008ED4A0008ED4A0008ED4A0008A4
:10006000ED4A0008ED4A0008ED4A0008ED4A000894
:10007000ED4A0008ED4A0008ED4A0008ED4A000884
:10008000ED4A0008ED4A0008FD140008ED4A00089A
:10009000ED4A0008ED4A0008ED4A0008ED4A000864
:1000A000ED4A000809150008ED4A0008ED4A00086D
:1000B00015150008ED4A0008ED4A0008ED4A000851
:1000C000ED4A0008ED4A0008ED4A0008ED4A000834
:1000D000ED4A0008ED4A0008ED4A0008ED4A000824
:1000E000ED4A0008ED4A0008ED4A0008ED4A000814
:1000F000ED4A0008ED4A0008ED4A0008ED4A000804
:10010000ED4A0008ED4A0008ED4A000821150008F4
:10011000ED4A0008ED4A0008ED4A0008ED4A0008E3
:10012000ED4A0008ED4A0008ED4A0008ED4A0008D3
:10013000ED4A0008ED4A0008ED4A0008ED4A0008C3
:10014000ED4A0008ED4A0008ED4A0008ED4A0008B3
:10015000ED4A0008ED4A0008ED4A0008ED4A0008A3
:10016000ED4A0008ED4A0008ED4A0008ED4A000893
:10017000ED4A0008ED4A0008ED4A000800000000C2
:08018000ED4A0008ED4A0008F9
:1001880010B5054C237833B9044B13B10448AFF3C9
:1001980000800123237010BD100000200000000023
:1001A800504C000808B5034B1BB103490348AFF393
:1001B800008008BD0000000014000020504C00081A
:1001C80053B94AB9002908BF00281CBF4FF0FF31B6
:1001D8004FF0FF3000F072B9ADF1080C6DE904CEB4
:1001E80000F006F8DDF804E0DDE9022304B070470A
:1001F8002DE9F047089E04468846002B4BD18A42D9
:10020800154667D9B2FA82F24AB1C2F1200701FA5B
:1002180002F320FA07F7954047EA030894404FEAAB
:10022800154E230CB8FBFEF71FFA85FC0EFB17884A
:1002380043EA084307FB0CF1994209D9EB1807F187
:10024800FF3080F01B81994240F21881023F2B4415
:100258005B1AA4B2B3FBFEF00EFB103344EA03446E
:1002680000FB0CFCA44509D92C1900F1FF3380F0E0
:100278000781A44540F2048102382C4440EA074033
:10028800A4EB0C0400271EB1D4400023C6E90043A8
:100298003946BDE8F0878B4209D9002E00F0EB8083
:1002A8000027C6E9000138463946BDE8F087B3FAA9
:1002B80083F7002F47D18B4202D3824200F2FA80A3
:1002C800841A61EB030301209846002EE0D0C6E9AA
:1002D8000048DDE702B9FFDEB2FA82F2002A40F0F8
:1002E8008F80491B4FEA154E1FFA85F80127B1FB8D
:1002F800FEFC230C0EFB1C1143EA014308FB0CF126
:10030800994207D9EB180CF1FF3002D2994200F25A
:10031800CD808446591AA3B2B1FBFEF00EFB10142F
:1003280043EA044408FB00F8A04507D92C1900F15A
:10033800FF3302D2A04500F2B6801846A4EB0804A9
:1003480040EA0C409FE7C7F1200CBB4022FA0CFEA4
:100358004EEA030E01FA07F420FA0CF521FA0CF321
:100368004FEA1E482543B3FBF8F92C0C08FB193358
:100378001FFA8EFA44EA034309FB0AF49C4202FA84
:1003880007F200FA07F10BD91EEB030309F1FF305E
:1003980080F087809C4240F28480A9F1020973446E
:1003A8001B1BADB2B3FBF8F008FB103345EA03445E
:1003B80000FB0AFAA24508D91EEB040400F1FF333A
:1003C8006BD2A24569D90238744440EA0940A0FBBF
:1003D8000289A4EB0A044C45C2464B4654D351D07B
:1003E800002E69D0B1EB0A0564EB030404FA0CFC97
:1003F800FD40FC404CEA0505C6E90054002747E7E4
:10040800C2F1200320FA03F7954001FA02F021FA1D
:1004180003F34FEA154E3843010CB3FBFEF71FFAFE
:1004280085F80EFB173341EA034107FB08F38B42BB
:1004380004FA02F407D9691807F1FF3C2FD28B425E
:100448002DD9023F2944CB1A81B2B3FBFEF00EFB33
:10045800103341EA034100FB08F38B4207D96918BE
:1004680000F1FF3C17D28B4215D902382944C91A2A
:1004780040EA07473BE73746304609E70746E7E6DD
:100488001846FBE64145ABD2B8EB020A69EB0E020F
:1004980001381346A4E76046E9E7184695E767463A
:1004A800D1E781467CE702382C4447E7ACF1020CDF
:1004B8002B442FE7384608E73746E9E6704700BF80
:1004C8000368B3F1804F16D10B4ADFED0C6AB2F91D
:1004D80000300B4907EE903A0A4BF8EEE77A93EDB5
:1004E800007A67EEA67A002037EE277A1080C1EDF1
:1004F800007A83ED007A70475A0000207559C43E8F
:100508003800002034000020024B1B68012B03D068
:10051800704700BF7C0000202DE9F04FDA4BDB4A22
:10052800DB491B681268DB4CDB484FF400052DEDF6
:10053800028B8D61D3F88050D3F88410136825801E
:10054800618043F040034FF480250021136083B09D
:100558008561D1609368DB07FCD5CF49D368CF4D5F
:100568000420886143F6FE7119401068C1F5735381
:100578000E3320F04000002B10602980C0F24A831F
:10058800DFF8F083A8F8003007EE903A9FEDC47AC0
:10059800C44BDFEDC56AC54FC54EDFF8DCA3F8EEE6
:1005A800E77A67EE877ABDEEE77AC3ED007AB8EEB0
:1005B800C77AC04B77EEC77A1D4667EEA67AB0EECB
:1005C800670AC3ED007A04F0D3FABB4B83ED000A47
:1005D80095ED000A04F088FA86ED000A97ED000A06
:1005E80004F0C6FADFEDB57A60EE277A97ED000AD7
:1005F800CAED007A04F078FAD7ED007A9FEDB07A68
:10060800B04BF4EEC77AF1EE10FA83ED000A00F36E
:100618008C829FEDAD7A77EE877AC7ED007AAB4989
:10062800B8F900000A88AA4F821A92B213B2BB42E4
:1006380080F2868202F57F533F33A64A1BB21380AD
:100648002288DFEDA55A9FEDA54ADFF830C3DFED1C
:10065800A44A088005EE102A62889CED007AA14F12
:10066800A148DFF81C83DFEDA10AA1499FEDA18A0B
:10067800DFEDA13AD7ED001AD8ED007ADFF804E3F0
:1006880096ED006A9EED001A9FED9C3A9C4CDFF8AF
:10069800F8929C4D06EE902AB8EE455AF8EE666A36
:1006A800B0EE652AA5EE042A834AE6EE845AB0EE37
:1006B800425AD2ED002A944A81ED002A35EE254AA5
:1006C800C2ED005AF0EE656AF0EE448AF0EE005A88
:1006D800E5EE258A8D498E4A9FED8E2A36EE845A9C
:1006E80078EEE65A65EE244A65EE885AD0ED006A3F
:1006F800C2ED005A24EEA25A27EE207AA5EEC65A79
:10070800854AA1EE827AB2F800B0D1ED001AD4ED94
:10071800000A9FED822A88ED005A67EEA37A24EE3C
:10072800866A66EEA36AA5EEA26A5B441380E1EED0
:10073800037A7B4B7B4A9FED7C1A80ED006AE1EEE1
:10074800836A7A48E5EE237AE6EE236AA0EEC17A58
:10075800C1ED006AA7EE827A754981ED006A754994
:10076800CEED007A20EE070ACCED007A84ED007A0F
:10077800C1ED007A704C7149DFF810E2DFF810C261
:1007880084ED005AF1EE445AC9ED005AC5ED004A0D
:1007980087ED007ADFED6A4AC1ED006A8EED000A46
:1007A800CCED007A90ED007ADFED662A93ED002A11
:1007B800654F9FED663A97ED006A654CDFED653A47
:1007C800D4ED005A9FED3D5A9FED374A80ED000A5F
:1007D80027EE247A60486149A2EE227AA0EE247AB4
:1007E800F0EE464AE7EE034AA7EE236A74EEA55AEE
:1007F80026EE055AF4EEC45AF1EE10FA83ED007AAB
:1008080080ED007A87ED006A81ED005AC2ED004A5A
:10081800C4ED005A40F38C8100232360504BDFF86D
:100828007491D3ED005A99ED006ADFED4E4ADFF876
:1008380068B19FED4D5A9BED007A4C494C4A75EED4
:10084800E65A77EE677AA5EEA46AC1ED005AB4EECF
:10085800C56AF1EE10FAC2ED007A40F3CD8189ED58
:10086800005AB0EE456ADFF834819FED3E5A98EDA4
:10087800007ADFED3D6AA7EE857AB4EEE67AF1EE0E
:1008880010FA40F3AB818DE034010020D000002045
:100898000004004868000020000C0048DC0200202A
:1008A800E2FF2F3ABC000020DA0FC94048000020C0
:1008B80078000020A4010020000000200000FA4475
:1008C800ACF4B4404C00002073D9A03E6600002070
:1008D80020D1FFFF58000020851B41C5E63FCC3FD3
:1008E80046B6133FCC0000209C000020399CF9BC80
:1008F800F8010020FA7EAA3EEC69873D85255E3F17
:10090800B800002054000020C0000020B0000020E3
:1009180050000020412BEC3F5A000020399CF93C44
:1009280000020020AC0000203C66703FA0000020C0
:100938002C000020B400002030000020FC01002022
:10094800EA78CC3B75CD7C3F700000202667913D4E
:10095800C4000020D6E51439A00100205002002070
:100968003C000020014D543F00601F465C00002001
:100978006000002064000020440000209400002053
:10098800A800002098010020D8020020D4020020EE
:100998009C010020800000204000002084000020EE
:1009A800B4B71342C8ED006AB0EE667ADAED006AB1
:1009B8001FED055ABA4ADFF84CA3BA480193E5EE91
:1009C800856A4FF400510092A7EE857A36EE866A62
:1009D8008AED007A82ED006A01F04AFEDDE9002323
:1009E800002840F0B480B04801880A2900F221812B
:1009F800DBF80090AD4CAE4BD4F800E0AD4C92ED76
:100A0800007AD4F80080AC4CDAED007A94ED006AF4
:100A1800AA4C03EB810CD4ED006AA94CCCF800E099
:100A280001F57A7C03EB8C0CD4F800B0CCF800808C
:100A380001F5BB5401F5DA5201F59C571034183210
:100A480003EB840403EB8202083701F5FA6E01F622
:100A5800B83801F57A6C03EB870703EB8E0E03EBCE
:100A68008808B1F57A7F03EB8C038EED006AC8ED38
:100A7800006A83ED007AC7ED007AC4F800B0C2F8C6
:100A8800009001D24B1C038096ED006A8D4BDFED80
:100A98008E5A93ED005A8D4B9FED8D4ADFED8D4AAE
:100AA80066EE676A67EE857AE7EE056AE7EE067A2C
:100AB800B6EE007A27EE667AC3ED006AF4EEE56AD0
:100AC800854BB0EE476AF1EE10FAC3ED007AA7EE57
:100AD800846AA7EEA47A40F1C780804B9620C3EDC4
:100AE800005ADFED797AB4EEE76AF1EE10FA40F1D8
:100AF800AE807B4B9621C3ED007ADFED737AB4EEBE
:100B0800E77AF1EE10FA54D5764B9622C3ED007AC7
:100B1800754B764C1B68802558639963DA63A56129
:100B280003B0BDEC028BBDE8F08F00233B6076E597
:100B3800F5EEC05AF1EE10FA48BF84ED004A6DE6B2
:100B480042F6E067BB427BDC694A138078E5DFED5B
:100B5800697A6248C3ED007A5C4BC2ED007AC3ED56
:100B6800007A514A5C4BC0ED007A0021B0EE677AFA
:100B7800CAED007ACBED007AC9ED007AC8ED007AAB
:100B8800C7ED007AC4ED007AC3ED007AB0EE676A6B
:100B980011804FF47A70DFED586ADFED587A504BC8
:100BA800E6EE267A83ED006AFCEEE77A17EE901AF5
:100BB800A3E7DFED537AB4EEE77AF1EE10FA32DC10
:100BC800DFED4D6ADFED4D7A464BE7EE267A83ED91
:100BD800007AFCEEE77A17EE902A99E7DFED3A6A99
:100BE800B4EEE67AF1EE10FA52BF88ED007AB0EE74
:100BF800667AC8ED006AD9E69FED337AB4EEC76A23
:100C0800F1EE10FA52BF89ED006AB0EE476A89ED3D
:100C1800007A28E6C1F5F9434D33DFF8EC801BB2C2
:100C2800A8F80030B0E42F4B40F23972C3ED007AD7
:100C38006EE7DFF8D890CBF8009000241C60D9E666
:100C4800A2F57F533F3B2A4A1BB21380F8E4DFED3D
:100C58002C7AB4EEE76AF1EE10FA9CDD204B40F2F4
:100C68003971C3ED007A48E7DFED257AF4EEE76ADB
:100C7800F1EE10FA05DD194B40F23970C3ED007A38
:100C88002FE7DFED1D5ADFED1D7A144BE6EEA57A4E
:100C9800C3ED006AFCEEE77A17EE900A21E700BF81
:100CA800980000200008004874000020FC01002083
:100CB800E0020020B40000202C00002030000020BA
:100CC800A40100200000002000601FC65000002082
:100CD8002DB25D3F2DB25DBF54000020880000207A
:100CE8008C00002090000020AC0100200004004887
:100CF8005800002000000000EBA8AA3D00007A443C
:100D080000601F46A40000206400002000009643F5
:100D1800F0B5B9B02422002106A803F08DFF002306
:100D28001946882216A80224CDE90033CDE90233FA
:100D38000493012603F080FF07254FF480711022E9
:100D48000A2305A80594CDE90F44CDE91444089178
:100D58000992CDE91163139501F03CFD08B172B613
:100D6800FEE703460F22CDE90233049368460323C6
:100D780004210193009202F09DF8034608B172B66F
:100D8800FEE744F2020725934FF0805108224FF006
:100D9800807316A8CDE917461A95CDE91B44169716
:100DA800349119921D9302F04DFA08B172B6FEE71C
:100DB8004FF4007001F070FC08B172B6FEE739B06C
:100DC800F0BD00BF38B5044600F022FC631C0546A0
:100DD80018BF013400F01CFC401BA042FAD338BDF8
:100DE80080B50024A0B000F0EBFBFFF791FFCDE940
:100DF8001244CDE91444A44B1694DA6CA34D42F086
:100E08000402DA64DA6C02F004020092009ADA6CE6
:100E180042F00102DA64DA6C02F001020192019AEE
:100E2800DA6C42F00202DA64DA6C02F00202029230
:100E3800029ADA6C42F00802DA64DB6C03F0080309
:100E48000393224620214FF09040039B01F016FCAB
:100E580001224FF400614FF0904001F00FFC012295
:100E680004218B4801F00AFC01222021894801F065
:100E780005FC22468021874801F000FC4FF400530E
:100E880012A9854812930126CDE9134401F0F8FA16
:100E98004FF4026312A94FF09040CDE91236CDE924
:100EA8001444042701F0ECFA032312A97848159397
:100EB800CDE91364129701F0E3FAA02312A975484B
:100EC8001293CDE91364159401F0DAFA342221461D
:100ED80012A8CDE90B440D9403F0AEFE6F4A6C6086
:100EE80008232846C5E902442E612C766C76EE610B
:100EF80085F8204085F830406C6385F838402A60D2
:100F08006B6100F08BFB08B172B6FEE703460BA9D4
:100F180028460B9301F09AF9044608B172B6FEE729
:100F2800284601F003FA5E4A8DF864400823CDE9AB
:100F3800122304227F230221CDE914230422002353
:100F4800CDE9162318914022402312A928468DF88E
:100F580065408DF866408DF87040CDE91A2300F0A1
:100F6800D7FE08B172B6FEE74E4B129328464FF4EF
:100F7800877312A9139300F0CBFE08B172B6FEE78F
:100F8800494B4A4919604FF482724FF470615A60B4
:100F98004FF400729860C3E90406C3E90800986238
:100FA800C3E90C00D9609A61282107221846D96143
:100FB800DA6202F057FB044608B172B6FEE73C4D10
:100FC800079001462C2212A80494CDE90B44CDE9E0
:100FD8000D44CDE90F441194CDE908440A94CDE9B4
:100FE800054403F029FE33496C60602240F2CF7358
:100FF8002846C5E90446AC612960C5E9022302F028
:1010080061FC08B172B6FEE74FF4805307A9284681
:10101800079303F08FF808B172B6FEE7284602F08E
:101028006BFD08B172B6FEE72023CDE9050004A9DF
:101038002846049303F052FA08B172B6FEE7024656
:101048007024CDE90D0040F2AF43CDE910000BA9A3
:1010580028460F970B940C9302F086FE08B172B6DF
:10106800FEE740F2833304220BA911480C9302F0E7
:101078007BFE08B172B6FEE708220BA90C4802F005
:1010880073FEC8B172B6FEE70010024034010020BA
:10109800000C004800040048000800480000045004
:1010A8004000201900002143D0000020003C0040EF
:1010B800AC010020002C014032214FF40052CDE950
:1010C800120014901690CDE91800CDE91B004FF0DE
:1010D800007315914C48179212A91A9303F050FA0D
:1010E800044608B172B6FEE7474800F07BF9474B63
:1010F800474A1A604FF4E1310C221846C3E902440A
:101108001C61C3E90644C3E9084459605A6103F005
:10111800DBFA08B172B6FEE73E4C12904FF08043FE
:10112800CDE913001590CDE90B000D90A06020616A
:10113800A06108222360204642F210736260E360D7
:1011480002F0C0FB08B172B6FEE74FF4805312A953
:101158002046129302F0EEFF034608B172B6FEE78E
:101168000BA920460B930D9303F0B8F908B172B69A
:10117800FEE77F21284800F0F3FC08B172B6FEE7CD
:10118800254800F03DFD08B172B6FEE71E4802F0A2
:101198003BFC08B172B6FEE71E4802F06DFC04463F
:1011A80008B172B6FEE7014617481C4E03F02AF94B
:1011B8000421154803F026F90821134803F022F901
:1011C8002146114802F03AFD04210F4802F036FD8D
:1011D80008210D4802F032FD1148124932680023F7
:1011E80003600B607AB92A680F4C40F2BB2140F2C9
:1011F8003F60506391634FF4FA60D1632360FFF757
:10120800E1FD01233360FEE7AC0100205402002019
:101218000044004004020020340100207C0000202B
:101228003C00002040000020AC0000200A4B1A6E51
:1012380042F001021A661A6E82B002F001020092B0
:10124800009A9A6D42F080529A659B6D03F0805324
:101258000193019B02B070470010024030B502684C
:10126800224B89B000249A42CDE90344CDE90544D4
:10127800079401D009B030BD03F17043A3F5F833EA
:101288000B25DA6C42F40052DA64DA6C02F400528C
:101298000092009ADA6C42F00102DA64DA6C02F029
:1012A80001020192019ADA6C42F00202DA64DB6C04
:1012B80003F00203029303A982234FF09040029A9D
:1012C800CDE9033501F0DCF8032303A908480393AB
:1012D800CDE9045401F0D4F822462146122001F049
:1012E8004BF8122001F07EF809B030BD0000045020
:1012F8000004004870B502681A4B88B000249A426E
:10130800CDE90344CDE90544079401D008B070BD88
:1013180003F5EA3303A99A6D134842F400429A652B
:101328009A6D02F400420192019ADA6C42F00402CA
:10133800DA64DB6C03F004030293062202234FF401
:10134800E055CDE90632CDE90353029E01F098F845
:1013580022462146332001F00FF8332001F042F8ED
:1013680008B070BD003C00400008004800B50368A4
:101378001A4A934283B01BD0B3F1804F02D003B016
:101388005DF804FB03F504331C209A6D42F001025A
:101398009A659B6D002203F0010301931146019B9E
:1013A80000F0EAFF1C2003B05DF804EB01F01AB866
:1013B8000B4B1A6E42F400621A661B6E002203F48D
:1013C8000063009311461920009B00F0D5FF1920F7
:1013D80003B05DF804EB01F005B800BF002C014034
:1013E8000010024070B502681C4B88B000249A4275
:1013F800CDE90344CDE90544079401D008B070BD98
:1014080003F564430226DA6C154842F00202DA64F6
:10141800DA6C02F002020192019ADA6C42F00102DF
:10142800DA64DB6C03F00103029301254FF4604397
:1014380003A9029A0795CDE9033601F021F84FF484
:10144800E06303A94FF0904004960795CDE9054461
:10145800039301F015F808B070BD00BF002C0140DF
:101468000004004870B50168184A88B0002391420A
:10147800CDE90333CDE90533079301D008B070BD3A
:1014880003F1804303F5043303A99A6D42F4003253
:101498009A659A6D02F400320192019ADA6C42F070
:1014A8000102DA64DB6C03F00103029303220723D1
:1014B8000C2502244FF09040029ECDE90354CDE95B
:1014C800062300F0DDFF08B070BD00BF00440040F7
:1014D800FEE700BFFEE700BFFEE700BFFEE700BF74
:1014E800FEE700BF704700BF704700BF704700BFEE
:1014F80000F082B8014800F087B900BF340100202D
:10150800014802F0C7BE00BFAC010020014802F04C
:10151800C1BE00BF04020020014802F027B900BF85
:10152800D00000201149124BD1F8882042F47002F3
:1015380010B4C1F888201A68002042F001021A602D
:1015480098601A6822F0A85222F410224FF48054AE
:101558001A60DC601A684FF0006422F480221A6076
:1015680098618C605DF8044B704700BF00ED00E0A7
:101578000010024038B50F4B1B780BB9012038BD5D
:101588000D494FF47A720546B2FBF3F30868B0FBD5
:10159800F3F000F035FF04460028EFD10F2DEDD809
:1015A800024629464FF0FF3000F0E6FE034B204686
:1015B8001D6038BD08000020040000200C00002039
:1015C80000B50C4A136843F4807383B0032013609A
:1015D80000F0C0FE0020FFF7CDFF18B1012003B0D6
:1015E8005DF804FB0190FFF721FE019803B05DF858
:1015F80004FB00BF00200240034A044B11681B781B
:101608000B441360704700BFE07F002008000020F3
:10161800014B1868704700BFE07F002070B582B0AA
:1016280000230193002800F09C80456D0446002D9E
:1016380000F08C80226893689D0005D5936823F09C
:10164800204323F03F0393609368D80017D4644B7A
:1016580091681B6863489B0921F01041A0FB0303B4
:1016680021F03F019B0941F0805191600193019B5A
:101678002BB1019B013B0193019B002BF9D193688E
:10168800D90055D4636D43F010036365A36D43F02F
:101698000103A365936813F0040F4FF00100636D15
:1016A8004DD1DB064BD4636D23F4817343F0020301
:1016B80063659368DE070AD44B4D4C4B4C49AD68C3
:1016C8009B6889682B43CD0703F001036DD5D4E9E6
:1016D8000215636B2B430B43657E94F8201043EA95
:1016E8004533012943EA014303D1616A013943EAD9
:1016F8004143A16A21B1E56A01F4707129430B43A2
:10170800D5683C4929400B43D360936859072BD5CA
:1017180093682369012B40D0136B23F00F031363E5
:10172800636D23F0030343F00103636502B070BDEA
:10173800936813F0040F4FF00000636DB1D0636D30
:10174800012043F01003636502B070BDFFF786FD0A
:101758002268A565936884F850509D007FF574AFA2
:101768006CE7012002B070BD93681B07D1D4D16823
:1017780094F83030267E94F8385021F480415B008C
:1017880021F0020143EA86330B43012DD36016D0C2
:10179800136923F001031361BBE7116BE36921F0BF
:1017A8000F01013B0B431363BAE7002B8FD112499A
:1017B80065688B6823F47C132B438B6087E7D4E937
:1017C8000F31666CA56C0B43116943F00103334379
:1017D80021F4FF612B4321F004010B43136198E7C7
:1017E80004000020632D3E05000004500001045051
:1017F8000002045007C0F0FF00030450704700BF08
:10180800704700BF704700BFF8B503688D4A1D6870
:101818005E689768A907044607F01F0702D5B20754
:1018280000F1A48069077DD572077BD5626DD20669
:1018380003D4626D42F400726265DA6812F4406F94
:101848001CD1814A934200F0DA80DA68900415D4FA
:101858001A68110712D59A68520700F1E9805A6888
:1018680022F00C025A60636D23F480736365636D24
:10187800DB0403D4636D43F0010363652046FFF77F
:10188800BDFF23680C221A60A80652D5B10650D5B0
:10189800626DD10603D4626D42F4005262656A48F3
:1018A800DA6CD968834202F0C00201F440616BD05F
:1018B800D86822B182011AD4C9B9810417D41A6828
:1018C800520614D5810212D49A68120700F1A78033
:1018D8005A6822F060025A60636D23F4805363658E
:1018E800636DD80503D4636D43F001036365204637
:1018F800FEF70AFE236860221A60290601D532061F
:1019080066D4E80501D5F1056DD4AA0501D5B00561
:1019180052D4E90601D5F20610D4680501D571053F
:101928003AD4F8BD2807AFD531073FF57FAFA806F1
:10193800ACD46A06E1D57006DFD5A9E7626B32B18F
:10194800002F68D03F4A926812F4604F0BD0636D45
:1019580043F480636365A36D43F00203A3652046E7
:10196800FFF750FF236810221A60D6E7436DD806A8
:1019780003D4636D43F400636365204600F0C6F941
:10198800236802221A604DE7002F91D0B81F012862
:101998008ED92E48C0688CE7626D42F48042626539
:1019A800A26D4FF4806142F00802A26520461960DA
:1019B800BDE8F84000F0A4B9636D43F48023636583
:1019C800204600F0A1F923684FF400721A60A0E7DE
:1019D800636D43F4803363652046FFF711FF236886
:1019E80080221A608DE7636D43F4003363652046F7
:1019F80000F088F923684FF480721A6085E7092F90
:101A080002D9124AD26821E740F22122FA40D207CD
:101A18003FF51BAFF5E7DA68D707A4D597E7636DFD
:101A280043F010036365A36D43F00103A3655EE70C
:101A3800636D43F010036365A36D43F00103A36571
:101A48001CE700BF000304500001045000000450CC
:101A580003689A68D2070DD49968204A11420BD0BE
:101A6800436D43F010034365836D43F001038365C1
:101A7800012070470020704770B59A68184E3240B0
:101A880042F001029A600446FFF7C2FD054623684A
:101A98001A68D2071FD49A68D10713D49A683240BB
:101AA80042F001029A60FFF7B3FD401B0228EED90D
:101AB800636D43F010036365A36D43F00103A365F1
:101AC800012070BDFFF7A4FD401B0228F0D8236851
:101AD8001A68D207DFD5002070BD00BF3F00008024
:101AE800C0FFFF7F38B503689A68910702D59B68E5
:101AF800002038BD9A68D20726D59A6802F00D02F0
:101B0800012A09D0436D43F010034365836D43F008
:101B180001038365012038BD9A6822F0004222F053
:101B28003F0242F0020203219A6019600446FFF75F
:101B38006FFD054604E0FFF76BFD401B022805D842
:101B480023689B68DB07F6D4002038BD636D43F03B
:101B580010036365A36D43F00103A365012038BD3D
:101B680030B590F8503083B00022012B019235D067
:101B7800012380F8503004460D46FFF7B3FF636D2C
:101B880020BB23F4885323F0020322681B4943F047
:101B980002036365936805F0804523F0404345F0F0
:101BA800004523F03F031D43956005E0019B013389
:101BB8000193019B8B4214D89368002BF6DB636D6D
:101BC80023F0030343F00103636502E043F01003CD
:101BD8006365002384F8503003B030BD022003B0A1
:101BE80030BD636D23F0120343F01003002201207F
:101BF800636584F8502003B030BD00BFFF87040040
:101C080038B53D4A036895689A68120758D4DA6867
:101C1800DB6C13F0C00F07D1002A05DB436D43F0DE
:101C280020034365012038BD90F85030012B47D080
:101C3800012380F850300446FFF70AFF002841D1FD
:101C4800636D2E49DB0549BFA36DA06523F008032A
:101C5800A365626D236822F4405222F0010242F427
:101C680080528B4205F01F0562652FD0626D22F409
:101C78008012626560221A60DA68002184F85010C8
:101C8800910203D55A6842F480625A606269082A50
:101C98005A6828D122F020025A605A6842F040025D
:101CA8005A60164A934214D0DA689201BBD49A68F3
:101CB80022F0004222F03F0242F008029A6038BD4A
:101CC800022038BD002384F8503038BD002DCDD017
:101CD800D0E7002DE8D0063D012DE5D9636D43F42A
:101CE8008013636538BD22F040025A605A6842F09A
:101CF80020025A60D5E700BF0003045000010450D9
:101D0800704700BF704700BF704700BF704700BFF3
:101D1800F0B590F8503083B00022012B019200F00A
:101D2800228103690122044680F85020002B6DD0DF
:101D38008B6993426AD0006E002840F0D980086A07
:101D4800013B002800F00E8200F03C004A6A18436C
:101D58001043D1E90025236605F01F05C2F384630B
:101D6800AB4018432368E065986807070DD4887F5F
:101D78004D7F4005002D40F0B080DD680E7F25F4D2
:101D8800401540EA06502843D860986810F00400CF
:101D980055D0986800209D68EE0714D4CF68B54DDB
:101DA800D3F8B060DFF8F8E207F0180C25FA0CF564
:101DB800C2F3120C154026EA0C0635437745C3F8E2
:101DC800B05000F0D380AC490A421AD0AB4DAC4EAB
:101DD800A968B24201F0E07700F02381A94EB2422F
:101DE80000F0A080A84EB2420BD14A0209D4A74AFB
:101DF800934206D1AB6823F0E0733B4343F480037E
:101E0800AB60002384F8503003B0F0BDD1E9002066
:101E180008282368A8D1086A950C05F4F85520B15C
:101E28004E6A00F03C0030430543D86C984E304071
:101E38002843D8649868E5650707A6D497E79D689E
:101E480015F00805A7D10E6A487F002E7ED101281B
:101E5800D8680CBF40F0007020F00070D8600020F7
:101E680091F82850012D00F072811D6925F00205B6
:101E78001D614FEAD25C0CF0040C03F11406C2F3A6
:101E880004525CF806508F684FF0070E0EFA02FEF7
:101E980025EA0E0507FA02F22A434CF80620D1F883
:101EA80010C0DE68BCF1040F03F1600500F0FA8091
:101EB8000F684A6955F82CE0C6F3C1067600B240AF
:101EC80007F0F847734E47F000473A430EEA060614
:101ED800324345F82C200A685DE7DD6825F4401593
:101EE8002843D860986810F004007FF452AFA6E742
:101EF800D1E90026E36DC2F3846506F01F06B540FC
:101F08001D430138C4E91750236800287FF42CAF1B
:101F1800D86C5F4E30400543DD64986807073FF58D
:101F280034AF24E7C9013FF56CAF584A934204D057
:101F380002F5007293427FF464AF504A936823F02D
:101F4800E0731F4347F0807797605AE74E6A002E88
:101F58003FF47DAF012800F03481DE6826F000767A
:101F68002846DE607CE7022003B0F0BDBCF1000F1C
:101F78002BD1920E013202F01F060125920602F0C3
:101F8800F842B540092E45EA020506EB460246D955
:101F98001E3A120542F000722A434FEAD25C0CF056
:101FA800040C03F11407C2F304525CF807508E685E
:101FB8004FF0070E0EFA02FE25EA0E0506FA02F2A7
:101FC8002A434CF807200A68FDE692FAA2F5002D8C
:101FD80040F0CA8092FAA2F5002D00F02081B5FAEF
:101FE80085F50135AD0605F0F84592FAA2F6002E02
:101FF80000F01381B6FA86F6013606F01F060127AF
:1020080007FA06F6354392FAA2F2002A00F0028196
:10201800B2FA82F2013202F01F0202EB420212050A
:10202800BAE70D023FF5EDAE184A934204D002F527
:10203800007293427FF4E5AE104A1749936823F083
:10204800E0731F4347F4000797600B68134A9B0926
:10205800A2FB03239B0903EB43039B000193019B12
:10206800002B3FF4CEAE019B013B0193019B002B5B
:10207800F9D1C6E6FFFF07000000088000030450FE
:10208800000052C7000084CB01000080000004500B
:102098000020088200F0FF0304000020632D3E05A5
:1020A80000007F400A681E6E1E6EC2F3120CC6F353
:1020B8008466BCF1000F00F0818092FAA2F757B154
:1020C800B7FA87F7BE4206D11A6E22F000421A66A6
:1020D8000A68C2F3120C6E686F68C7F38467BCF1B4
:1020E800000F73D1C2F38466B74240F0A8806A68D3
:1020F80022F000426A600A68AE68AF68C2F312064E
:10210800C7F38467002E6CD1C2F38466B74205F129
:102118000C0C40F08F80AA6822F00042AA600A687E
:10212800DCF80050DCF80050C2F31206C5F38465F1
:10213800002E65D1C2F38466AE427FF42CAEDCF883
:10214800002022F00042CCF800200A6823E6D1E9FA
:102158000B571E693D4345F0020526F4FF763543CB
:102168001D6186E61846F4E5B5FA85F5013505F0F2
:102178001F05092D7FF62EAF92FAA2F5002D53D038
:10218800B5FA85F50135AD0605F0F84592FAA2F6DF
:10219800002E47D0B6FA86F6013606F01F0601274C
:1021A80007FA06F6354392FAA2F28AB3B2FA82F235
:1021B800013202F01F0202EB4202E9E6C2F3846731
:1021C80080E7656D45F02005656549E692FAA2F657
:1021D8001EB1B6FA86F6B74289D0AE68AF68C7F3C3
:1021E800846792FAA2F616B3B6FA86F6B74205F1F4
:1021F8000C0C90D0DCF80050DCF80050C5F3846576
:1022080092FAA2F6002E3FF4C6ADB6FA86F693E728
:102218000D4AC1E64FF44012BEE60226F2E64FF040
:102228008065E2E60226BDE74FF08065AEE705F17E
:102238000C0CDFE7EF68ED68C5F384657CE7AF68F1
:10224800AF68C7F3846761E7000050FE90F850203C
:10225800012A57D0F0B40268304C0D680346A242F8
:102268004FF0010083F8500008D05A6D002142F069
:1022780020025A6583F85010F0BC7047284CA068BB
:1022880040070AD592685A6D42F020025A6501202B
:10229800002283F85020F0BC704790684707F2D4BA
:1022A80005B3204F4E68B86893F830C020F46040FA
:1022B800304340EA4C30B8609068A26812F0010FD1
:1022C800194A92681CD1D6071AD410F0010017D108
:1022D800BC688A6824F47161154321F00F010D432D
:1022E800BD60D5E70F49104E886820F460408860CB
:1022F8009568A068B2682843D40700F0010003D5A8
:102308000020C5E7022070470028F9D18A6822F426
:10231800716222F00F028A60BAE700BF0000045021
:1023280000010450000304500002045003689A6836
:10233800520702D59B6801207047986810F0080082
:10234800F9D1DA6822F0004222F4001242F0004289
:10235800DA607047074AD3684FF6FF010B40000266
:1023680043F0BF6300F4E06043F400330343D360F9
:10237800704700BF00ED00E0184BDB68C3F3022391
:1023880030B4C3F10705042D03F1040428BF042564
:10239800062C19D9033B4FF0FF349C4022EA040471
:1023A8004FF0FF32AA4021EA020101FA03F2224368
:1023B80012010028D2B20ADB00F1604000F561404A
:1023C80080F8002330BC704700242346E8E7044B1C
:1023D80000F00F0003441A7630BC704700ED00E0AF
:1023E800FCEC00E0002807DB044A00F01F01012391
:1023F80040098B4042F82030704700BF00E100E000
:102408000138B0F1807F0ED2084B10B4084C5860E8
:10241800F02084F823000022072110469A601960F2
:102428005DF8044B70470120704700BF10E000E0E2
:1024380000ED00E090F82520022A03D00422C263B0
:10244800012070470168426C70B50C68066C856B9A
:1024580024F00E040C600C6824F001040C6002F0F7
:102468001C02012101FA02F20024726080F8251092
:1024780080F8244015B1A847204670BD284670BD95
:102488002DE9F04FD1F8009083B0B9F1000F00F0BA
:10249800B180DFF8D8B188460025012303FA05F793
:1024A80017EA090A00F0A180D8F8043023F01001D7
:1024B8006C0003220139A24001296FEA02020ED8FA
:1024C8008668D8F80C101640A140314381604668F0
:1024D800C3F3001126EA0706A94031434160D8F842
:1024E800086003F00301032906FA04F600F085806A
:1024F800C76817403E43022BC66040F08D804FEA04
:10250800D50E00EB8E0E05F00707DEF82060BF0041
:102518004FF00F0C0CFA07FC26EA0C0CD8F81060E8
:10252800BE4046EA0C06CEF820600668A14032405C
:102538001143DA00016058D545490A6E42F001029C
:102548000A660A6E25F0030404F1804402F00102D1
:1025580004F58034019205F003020199A6689200FF
:102568000F219140B0F1904F26EA010116D0394E63
:10257800B04259D0384EB04251D0384EB0425DD0FA
:10258800374EB0425FD0374EB04252D0364EB0428E
:102598000CBF0626072606FA02F21143A160DBF8F3
:1025A80000206FEA0A01DF0354BF0A404AEA020228
:1025B800CBF80020DBF804209E0354BF0A404AEA07
:1025C8000202CBF80420DBF80820DC0254BF0A40E2
:1025D8004AEA0202CBF80820DBF80C209B0254BF21
:1025E8000A404AEA0202CBF80C20013539FA05F311
:1025F8007FF453AF03B0BDE8F08FD0F82CC0C3F31D
:10260800C00E2CEA070C7746AF4047EA0C07C762B2
:10261800C76817403E43C660122B86D16FE7022673
:1026280006FA02F21143B9E7012606FA02F211434B
:10263800B4E7052606FA02F21143AFE7032606FAC5
:1026480002F21143AAE7042606FA02F21143A5E7AB
:10265800001002400004004800080048000C004830
:102668000010004800140048001800480004014009
:102678000369194214BF0120002070470AB981621A
:1026880070478161704700BF024B186800F4C06052
:10269800704700BF007000401E4A1368B0F5007F05
:1026A80003F4C0630AD0B3F5806F2ED0136823F407
:1026B800C06343F48063136000207047B3F5007F64
:1026C80023D01168144B154821F4C06141F40071FE
:1026D80010B411601C685169322303FB04F3A0FB9A
:1026E80003039B0C480503F1010306D500E023B161
:1026F8005169490503F1FF33F9D4064B5B695B0562
:1027080005D400205DF8044B704700207047032073
:10271800F8E700BF007000400400002083DE1B4380
:10272800284A9368D26813F00C0308D00C2B38D0D1
:10273800042B34D0082B244818BF00207047214AA6
:102748001168090754BFD2F8942012681F4954BF72
:10275800C2F30322C2F3031251F8220003B30C2B75
:102768002DD1184BDB6803F00303022B25D0164A42
:10277800032B08BF1046134BD968DA68DB68C3F32C
:1027880041630133C1F30211C2F3062200FB02F2D6
:1027980001315800B2FBF1F3B3FBF0F070470C487D
:1027A800704702F00302012AC9D0064BDB6803F028
:1027B8000303022B4FF00000D9D10548DBE70020C6
:1027C800704700BF0010024000127A00804C0008D9
:1027D8000024F400002800F0A4812DE9F043B24A57
:1027E80003689568D668DA0685B0044605F00C05D6
:1027F80006F003062ED5002D00F00E810C2D00F0FA
:102808000881A369A84F002B00F077813B6843F04B
:1028180001033B60FEF7FCFE804606E0FEF7F8FE8B
:10282800A0EB0800022800F278813B689B07F5D5E9
:102838003B6843F008033B603B68226A23F0F003DF
:1028480013433B607B68E26923F47F4343EA022336
:102858007B602368D90700F1B380990723D5042D3D
:1028680000F03B810C2D00F03581E3688E4E002B83
:1028780000F08381336843F480733360FEF7C8FE49
:10288800074605E0FEF7C4FEC01B022800F245819A
:1028980033685B05F6D57368226923F0F85343EA79
:1028A800026373602368190719D563697E4E002B8C
:1028B80000F04D81D6F8943043F00103C6F8943007
:1028C800FEF7A6FE074605E0FEF7A2FEC01B02289B
:1028D80000F22381D6F894309A07F5D52368580773
:1028E80041D5714B9A6DD10000F145819A6D42F046
:1028F80080529A659B6D03F080530193019B0127D9
:102908006A4E3268D20540F1AF81A368012B00F00E
:10291800BD81052B00F08881634ED6F8902022F007
:102928000102C6F89020D6F8902022F00402C6F8DA
:102938009020002B40F08581FEF76AFE41F288382E
:10294800814606E0FEF764FEA0EB0900404500F270
:10295800E480D6F890309907F4D427B1524A936DA1
:1029680023F080539365A36A33B3022B00F0BA8136
:102978000C2D00F094804C4B1A6822F080721A607B
:102988001A6812F0205F03D1DA6822F00302DA60D5
:10299800454CE36823F0887323F48033E360FEF743
:1029A80037FE054605E0FEF733FE401B022800F21D
:1029B800B48023689B01F6D4002005B0BDE8F083FD
:1029C800082D7DD00C2D79D06368B3F5803F00F0D9
:1029D800AA80B3F5A02F00F0DC81334F3A6822F4C7
:1029E80080323A603A6822F480223A60002B40F044
:1029F8009F80FEF70DFE804606E0FEF709FEA0EB7D
:102A08000800642800F289803B689803F5D423689D
:102A180023E7012E7FF4F5AE234B1B689F073BD4B9
:102A2800214BD4F820801A681F4F100756BFD3F8DF
:102A380094301B681B0903F0F003984500F2AF803F
:102A48003B6843F008033B603B6823F0F00343EA2C
:102A580008033B607B68E26923F47F4343EA02236F
:102A68007B60002D00F01A81FFF75AFE0E4B104ACA
:102A78009B681049C3F30313D35C0F4A03F01F0389
:102A880020FA03F308681360FEF774FD40B9236861
:102A9800D9077FF5E2AE93E7A369002BC0D10120E7
:102AA80005B0BDE8F08300BF001002400070004090
:102AB800684C00080C00002004000020032E83D17D
:102AC800BA4A126892037FF5C8AE6268002A7FF49A
:102AD800C4AEE4E7022E7FF4C8AEB44A12685205C9
:102AE80002D5E268002ADAD0B04920694A6822F0A3
:102AF800F85242EA00624A60D5E63B6823F00103D7
:102B08003B60FEF785FD80463B689807BFD5FEF71A
:102B18007FFDA0EB08000228F6D9032005B0BDE828
:102B2800F08301207047A14A136843F4803313608F
:102B3800FEF76EFD9D4F804605E0FEF769FDA0EBB0
:102B480008006428E9D83B689B03F6D55FE7D6F808
:102B5800943023F00103C6F89430FEF759FD074678
:102B680004E0FEF755FDC01B0228D6D8D6F89430ED
:102B78009B07F6D4B2E60027C2E6336823F48073D5
:102B88003360FEF745FD074604E0FEF741FDC01B34
:102B98000228C2D833685805F7D4236883E6BB6D8A
:102BA800D90031D5FFF770FDB0F5007F00F0048142
:102BB800B8F1800F00F21B8100F07581A8F1700850
:102BC800B8FA88F84FEA5818794A136823F00703C7
:102BD80043EA08031360136803F0070398457FF47A
:102BE8005EAF724B1A6842F008021A601A68216ACE
:102BF80022F0F0020A431A605A68E16922F47F421F
:102C080042EA01225A602FE7BB6D43F08053BB654F
:102C1800BB6D03F080530293029BFFF735FDBB6D3C
:102C280023F08053BB65BFE7604BD3F8902042F098
:102C38000402C3F89020D3F8902042F00102C3F8B0
:102C48009020FEF7E5FC594E814641F2883806E0AF
:102C5800FEF7DEFCA0EB090040453FF65EAFD6F874
:102C680090309807F4D578E6326842F48072326082
:102C7800FEF7CEFC80463368DB053FF546AEFEF72F
:102C8800C7FCA0EB08000228F5D946E7474AD2F866
:102C9800903043F00103C2F89030D2E7BB6DDA0000
:102CA80040F19580FFF7F0FCB0F5007F00F0A280BE
:102CB800B8F1800F00F2EE8000F0F880A8F17008FB
:102CC800B8FA88F84FEA5818394A136823F0070306
:102CD80043EA08031360136803F0070398457FF479
:102CE800DEAEC1E6314AE16AD36803F003008842E8
:102CF80000F08B800C2D3FF4D2AE2C4D2A68520187
:102D08003FF5CDAE2A68D3003FF5C9AE2A6822F058
:102D180080722A60FEF77CFC064605E0FEF778FC28
:102D2800801B02283FF6F9AE2B689F01F6D4E968AC
:102D3800204BE26A676B266B0B40D4E90E01134304
:102D480043EA0723226C741E43EA04130009490866
:102D580043EA40430139520843EA4153013A43EAFE
:102D68004263EB602B68114C43F080732B60EB6877
:102D780043F08073EB60FEF74BFC054605E0FEF779
:102D880047FC401B02283FF6C8AE23689801F6D5D9
:102D980012E603F18043A3F53C331A6842F480221B
:102DA8001A601A6842F480321A60C1E600100240C4
:102DB800002002408C809DF9B8F1800F6DD9B8F1E0
:102DC800A10F34BF4FF001084FF00208FCE6BB6DBD
:102DD80043F08053BB65BB6D03F080530393039BA3
:102DE800FFF752FCBB6D23F08053BB655CE74FF0E7
:102DF8000308E9E6B8F1800F52D9B8F1A10F34BF42
:102E08004FF001084FF002085EE7206B03F07001F5
:102E18000138B1EB001F7FF46DAF606B03F4FE4126
:102E2800B1EB002F7FF466AFA16B073903F40030D4
:102E380018BF012188427FF45DAFE16B4908013971
:102E480003F4C000B0EB415F7FF454AF216C490834
:102E580003F0C0630139B3EB416F7FF44BAF1368E4
:102E680099013FF5A9AD136843F080731360D368E7
:102E780043F08073D3601446FEF7CAFB054605E0AD
:102E8800FEF7C6FB401B02283FF647AE23689A01AF
:102E9800F6D591E54FF0030816E74FF0000893E6E2
:102EA8004FF0000810E74FF002088DE64FF00208D7
:102EB8000AE700BF78B1464A136803F007038B425C
:102EC8000BD2136823F007030B431360136803F056
:102ED80007038B4201D00120704703682DE9F041B8
:102EE8000D46D907044624D543683A4A032B12688D
:102EF80062D0022B65D0002B66D1960732D5354EAD
:102F0800B26822F003021343B360FEF781FB41F27B
:102F18008837804605E0FEF77BFBA0EB0800B84247
:102F28004DD8B368626803F00C03B3EB820FF2D19B
:102F38002368990706D52749A0688A6822F0F00215
:102F480002438A6022490A6802F00702AA420CD9A1
:102F58000A6822F007022A430A600A6802F0070298
:102F6800AA4202D00120BDE8F0815A0706D51949C6
:102F7800E0688A6822F4E06202438A601B0707D58A
:102F8800144A2169936823F4605343EAC1039360A8
:102F9800FFF7C6FB0F4B104C9B681049104AC3F350
:102FA8000313E35C03F01F0320FA03F3BDE8F041C9
:102FB80008681360FEF7DEBA9201A0D4D2E70320B6
:102FC800D1E797039BD4CDE75005CBD597E700BF52
:102FD8000020024000100240684C00080C0000204D
:102FE80004000020054B064A9B680649C3F30223E8
:102FF8000868D35C03F01F03D840704700100240F4
:10300800784C000804000020054B064A9B680649D6
:10301800C3F3C2230868D35C03F01F03D84070478A
:1030280000100240784C000804000020454AF8B51A
:10303800D4680368A40706D0D46804F003049C424B
:103048000BD00120F8BD022B11D0032B56D0012B39
:10305800F7D112689707F4D50CE0002CF1D0D368AB
:103068004268C3F3021301339342EAD10CE01268B9
:103078005605E6D5334D4468EA6822F073021343D7
:10308800013C43EA0413EB602E4C236823F0806371
:1030980023600F460546FEF7BBFA064604E0FEF736
:1030A800B7FA801B022827D823681A01F7D4AB681F
:1030B800190257BB2369EA6823F41F3323F44073CA
:1030C8000B43120943EA424323611E4C236843F031
:1030D80080632360FEF79CFA064604E0FEF798FA40
:1030E800801B022808D823681B01F7D5AA69236921
:1030F800134323610020F8BD0320F8BD1468A5031D
:10310800B8D4126854039CD5B4E7012F0CD02269B7
:103118006B6922F0C06222F4FE425B080A43013B5D
:1031280042EA43622261D0E723692A6923F4C00393
:1031380023F4FE4352080B43013A43EA4253236106
:10314800C3E700BF001002403D4AF8B5D4680368E1
:10315800A40706D0D46804F003049C420BD00120D5
:10316800F8BD022B11D0032B56D0012BF7D11268D2
:103178009707F4D50CE0002CF1D0D3684268C3F36C
:10318800021301339342EAD10CE012685605E6D5E2
:103198002B4D4468EA6822F073021343013C43EA6A
:1031A8000413EB60264C236823F0805323600F46FA
:1031B8000546FEF72DFA064604E0FEF729FA801BBD
:1031C800022827D823689A00F7D4AB68190257BB9E
:1031D8006269EB6822F41F3222F440720A431B0929
:1031E80042EA43426261164C236843F080532360ED
:1031F800FEF70EFA064604E0FEF70AFA801B0228DC
:1032080008D823689B00F7D56A696369134363612B
:103218000020F8BD0320F8BD1468A503B8D41268CF
:1032280054039CD5B4E763692A6923F0C06323F487
:10323800FE4352080B43013A43EA42636361D2E713
:10324800001002402DE9F043036813F4006683B0D0
:10325800044617D0416EB1F5800F00F0BB8140F2F3
:10326800EE81B1F5000F00F0AF81B1F5400F40F0ED
:10327800EC81C348D0F8882022F440021143C0F8FA
:1032880088100026D80440F10081A16EB1F1807F3A
:1032980000F0878140F2CA81B1F1007F00F08D8192
:1032A800B1F1407F40F0F0803746002F40F0838135
:1032B800B349A06ED1F8882022F040720243C1F8C9
:1032C8008820990300F1E580DA0708D5AC49A06B9E
:1032D800D1F8882022F003020243C1F888209F0712
:1032E80008D5A749E06BD1F8882022F00C020243E8
:1032F800C1F888205D0708D5A149206CD1F888203D
:1033080022F030020243C1F88820180708D59C49EA
:10331800606CD1F8882022F0C0020243C1F88820EE
:10332800D90608D59649A06CD1F8882022F44072B5
:103338000243C1F888209A0608D59149E06CD1F873
:10334800882022F440620243C1F888209F0508D5EE
:103358008B49E06DD1F8882022F440220243C1F85D
:1033680088205D0508D58649206ED1F8882022F48A
:1033780040120243C1F88820580608D58049206DBC
:10338800D1F8882022F440520243C1F88820190657
:1033980008D57B49606DD1F8882022F44042024369
:1033A800C1F88820DA0508D57549A06DD1F88820BC
:1033B80022F440320243C1F888209F0410D5704996
:1033C800E06ED1F8882022F040620243B0F1006F2D
:1033D800C1F8882000F0CE80B0F1806F00F016812F
:1033E8001D0310D56649206FD1F8882022F040626D
:1033F8000243B0F1006FC1F8882000F0C580B0F139
:10340800806F00F00B81580310D55D49606FD1F8CB
:10341800882022F040620243B0F1006FC1F8882092
:1034280000F0A380B0F1806F00F0E880590410D557
:103438005348A16FD0F8882022F040520A43B1F1D6
:10344800805FC0F8882000F0A480B1F1005F00F030
:10345800CC801A0408D54A49E06FD1F8882022F0B8
:1034680080420243C1F88820DB0309D5444AD4F8D6
:103478008010D2F8883023F000430B43C2F888301C
:10348800304603B0BDE8F0830126374699037FF53F
:103498001BAF3B4B9A6DD20059D54FF00008394D00
:1034A8002B6843F480732B60FEF7B2F8814605E081
:1034B800FEF7AEF8A0EB0900022854D82B68DB050C
:1034C800F6D5002F40F0C9802D4BD4F88410D3F8DE
:1034D800902012F4407228D08A4226D0D3F8900067
:1034E800D3F8902042F48032C3F89020D3F890208B
:1034F80020F4407522F48032C007C3F89020C3F846
:10350800905012D51D46FEF783F841F28837814660
:1035180005E0FEF77DF8A0EB0900B84223D8D5F8FE
:1035280090309907F5D5D4F88410154AD2F8903020
:1035380023F440730B43C2F89030B8F1000F04D065
:103548000F4A936D23F0805393652368BCE69A6D08
:1035580042F080529A659B6D03F080530193019B62
:103568004FF001089BE70326E7E7CA6842F4801298
:10357800CA605BE7CA6842F48012CA6030E700BFDD
:103588000010024000700040CA6842F48012CA600D
:1035980039E70221201DFFF749FD68B30646236875
:1035A80057E7002104F12000FFF7CEFD0746236806
:1035B800002F3FF47DAE3E4668E72949CA6842F4C9
:1035C8008032CA60374670E62548C26842F48032C5
:1035D800C2604EE600212030FFF7B6FD064623689C
:1035E800002E7FF44FAE616E43E6022104F1200005
:1035F800FFF7AAFD0028D1D123682AE70121201D61
:10360800FFF714FD38B3064623680FE70121201D94
:10361800FFF70CFDE8B106462368E1E60121201D0D
:10362800FFF704FD98B106462368ECE600297FF40D
:103638002BAF201DFFF7FAFC2368074635E621B9B2
:103648000430FFF7F3FC0646C9E701261AE62368AB
:10365800D9E62368C4E62368E8E63E466DE700BF7E
:103668000010024000286DD0D0F824C02DE9F041A8
:10367800BCF1000F59D00023C0E9043390F85D3045
:103688000022044603F0FF018262002B5CD021680F
:10369800E268022384F85D300B68B2F5E06F23F02E
:1036A80040030B6048D9B2F5706F5AD1A36A00275E
:1036B80003F40050D4E901362569D4F818E006F47B
:1036C800044603F48273334305F002052B4365690E
:1036D80002F4706805F00105626B2B43D4E90765B5
:1036E80002F0080242EA08024FEA1E480EF4007E81
:1036F80008F0040843EA0E0306F0380642EA080216
:10370800334305F080050CF0100C42EA0C0C2B43F7
:10371800034300224CEA070701250B6010464F605F
:10372800226684F85D50BDE8F0814368B3F5827F76
:10373800A4D0C0F81CC0A1E70DD04FF480570020DA
:10374800A062B7E70120704780F85C10FDF7D2FD52
:10375800D4F824C09BE7A36A4FF4805703F40050C1
:10376800A8E70027EBE700BF704700BF30B5016846
:103778004D688B68C3F3801485B0024654B913F0C2
:10378800010F07D015F0400F04D0C36C05B0BDE899
:1037980030401847980707D5280605D5136D1046F9
:1037A80005B0BDE830401847C3F3401000283DD1AC
:1037B800002C4ED0AC0637D592F85D40032C5AD079
:1037C800146E44F0040414660090C8680090886879
:1037D80000900098C3F30023002B3ED1136E1BB357
:1037E8004B68144623F0E0030122AD074B6084F8D0
:1037F8005D2048D04B68A06D23F003034B6040B1B7
:103808002A4B8363FEF716FE18B1236E43F040037C
:103818002366606D40B1254B8363FEF70BFE18B13C
:10382800236E43F04003236605B030BDA806FBD5E0
:10383800ECB9C3F30023106E002440F001001066B9
:10384800029488680290086820F040000860029896
:10385800C2E7DC05E8D5AB06E6D5136E002043F0D9
:103868000803136603908B680393039BB6E792F8EB
:103878005D0003280BD100230193CB6801938B686B
:103888000193019BD0E72046FFF76EFFCCE7106E4F
:10389800002440F0040010660094C868009088680E
:1038A8000090C3F300230098C5E700BFB9380008AB
:1038B80008B5836A0022A3F846201846DA87FFF77E
:1038C80053FF08BD002800F08680F8B590F83D3019
:1038D800044603F0FF0283B32268484EA569E068F6
:1038E8006168022384F83D30B242136875D0B2F1A2
:1038F800804F56D0A6F59436B24223D006F580669E
:10390800B2421FD006F58066B2421BD006F5943647
:10391800B24217D006F54066B2426DD006F5806611
:10392800B24269D006F58066B24265D023F08003C2
:103938002B431360D062916217E080F83C20FDF7BA
:1039480015FDC9E7A6682E4F23F070033343266997
:1039580023F44073334323F080032B43BA421360AC
:10396800D06291622BD163691363012353610020F4
:1039780084F8483084F83E3084F83F3084F840308A
:1039880084F8413084F8423084F8433084F8443075
:1039980084F8453084F8463084F8473084F83D3060
:1039A800F8BDA768266923F070033B4323F44073EE
:1039B800334323F080032B431360D0629162114B91
:1039C8009A42D0D003F580639A42CCD003F5806345
:1039D8009A42CAD1C7E701207047A768266923F031
:1039E80070033B4323F44073334323F080032B439A
:1039F8001360D0629162B6E72669F3E7002C0140B4
:103A0800003401400040014090F83D30012B01D0C6
:103A1800012070470368164A0221934280F83D103E
:103A28001CD0B3F1804F19D0A2F59432934215D02F
:103A380002F58062934211D002F5806293420DD064
:103A480002F59432934209D002F54062934205D0C0
:103A58001A6842F001021A60002070479968054A06
:103A68000A40062A02D0B2F5803FF1D10020704703
:103A7800002C01400700010090F83D30012B01D0D7
:103A88000120704703681849022280F83D20DA684F
:103A98008B4242F00102DA601BD0B3F1804F18D09C
:103AA800124A934215D002F58062934211D002F572
:103AB800806293420DD002F59432934209D002F508
:103AC8004062934205D01A6842F001021A60002051
:103AD80070479968064A0A40062A02D0B2F5803F24
:103AE800F1D10020704700BF002C014000040040C5
:103AF80007000100704700BF002800F08680F8B575
:103B080090F83D30044603F0FF0283B32268484E24
:103B1800A569E0686168022384F83D30B242136801
:103B280075D0B2F1804F56D0A6F59436B24223D064
:103B380006F58066B2421FD006F58066B2421BD0F9
:103B480006F59436B24217D006F54066B2426DD0FB
:103B580006F58066B24269D006F58066B24265D045
:103B680023F080032B431360D062916217E080F842
:103B78003C20FFF7BFFFC9E7A6682E4F23F070036C
:103B88003343266923F44073334323F080032B43E4
:103B9800BA421360D06291622BD163691363012327
:103BA8005361002084F8483084F83E3084F83F3070
:103BB80084F8403084F8413084F8423084F8433047
:103BC80084F8443084F8453084F8463084F8473027
:103BD80084F83D30F8BDA768266923F070033B439D
:103BE80023F44073334323F080032B431360D062E4
:103BF8009162114B9A42D0D003F580639A42CCD09F
:103C080003F580639A42CAD1C7E701207047A768C5
:103C1800266923F070033B4323F44073334323F0B6
:103C280080032B431360D0629162B6E72669F3E7FD
:103C3800002C01400034014000400140002950D1CF
:103C480090F83E30012B60D1022380F83E300368A3
:103C58000122186A01F01F0102FA01F120EA0100AD
:103C680010B418621A6A3C4C1143A34219625AD024
:103C78003A4A93420BD002F54062934207D002F5CC
:103C88008062934203D002F58062934203D15A6C5A
:103C980042F400425A64B3F1804F12D0304A934242
:103CA8000FD002F5806293420BD002F580629342F6
:103CB80007D002F59432934203D002F54062934252
:103CC80007D19968274A0A40062A20D0B2F5803FD2
:103CD8001DD01A685DF8044B42F0010200201A60FA
:103CE8007047042917D0082922D00C2909D0102997
:103CF8002AD090F84330012B07D1022380F84330B3
:103D0800A5E790F84130012B1AD001207047002018
:103D18005DF8044B704790F83F30012BF5D1022332
:103D280080F83F3093E75A6C42F400425A64C8E77F
:103D380090F84030012BE8D1022380F8403086E724
:103D4800022380F8413082E790F84230012BDCD121
:103D5800022380F842307AE7002C01400034014009
:103D6800000400400700010090F83C30012B00F0EF
:103D7800C1810123F0B480F83C30142A54D8DFE81C
:103D880012F015005300530053009E0053005300D7
:103D980053007301530053005300E70053005300CE
:103DA80053002C0153005300530059000368D1F805
:103DB80008C01D6A0F68AB4E25F001051D621A6A1E
:103DC8005D689C6924F4803422F0020224F07304B4
:103DD800B34242EA0C0244EA070408D006F500663A
:103DE800B34204D006F54066B34240F09581CE68F0
:103DF80022F008023243D1E9056725F440753E43B5
:103E080022F0040235434E685D609C615E631A626D
:103E18009C690D6944F008049C61996921F00401CA
:103E280099619A692A439A61002380F83C30F0BC72
:103E3800184670470368D1F808C01D6A0F68894E94
:103E480025F480151D621C6A5D685A6D22F0807227
:103E580024F4001422F4E042B34244EA0C5442EA47
:103E680007220FD006F50066B3420BD006F5406670
:103E7800B34207D006F58066B34203D006F58066E4
:103E8800B34204D14E6925F4802545EA86254E685B
:103E98005D605A65DE651C625C6D0D6944F4006402
:103EA8005C65596D21F4806159655A6D42EA0522B5
:103EB8005A65002380F83C30F0BC18467047036808
:103EC800D1F808C01D6A0F68664E25F010051D62FE
:103ED8001C6A5D689A6922F0807224F0200422F43A
:103EE800E642B34244EA0C1442EA072200F0048195
:103EF80006F50066B34200F0FF8006F54066B3425F
:103F080007D006F58066B34203D006F58066B34253
:103F180006D1D1E9056725F440653E4345EA8605A3
:103F28004E685D609A619E631C629C690D6944F4E9
:103F380000649C61996921F4806199619A6942EAF7
:103F480005229A61002380F83C30F0BC184670477F
:103F58000368D1F808C01D6A0F68424E25F48055E1
:103F68001D621C6A5D68DA6922F0807224F40054CC
:103F780022F4E642B34244EA0C3442EA07220FD064
:103F880006F50066B3420BD006F54066B34207D08B
:103F980006F58066B34203D006F58066B34204D1C5
:103FA8004E6925F4804545EA86154E685D60DA61FC
:103FB8001E641C62DC690D6944F40064DC61D96923
:103FC80021F48061D961DA6942EA0522DA610023C5
:103FD80080F83C30F0BC184670470368D1F808C038
:103FE8001D6A0F681F4E25F480351D621C6A5D68C6
:103FF8005A6D22F4803224F4003422F07002B34265
:1040080044EA0C4442EA07020FD006F50066B342C0
:104018000BD006F54066B34207D006F58066B3427A
:1040280003D006F58066B34204D14E6925F4803585
:1040380045EA06254E685D605A659E651C625C6DA2
:104048000D6944F008045C65596D21F00401596557
:104058005A6D2A435A65002380F83C30F0BC184654
:10406800704700BF002C01400368D1F808C01D6AE2
:104078000F682F4E25F480751D621C6A5D68DA6929
:1040880022F4803224F4007422F07302B34244EA2A
:104098000C2442EA070237D006F50066B34233D053
:1040A80006F54066B34207D006F58066B34203D0F2
:1040B80006F58066B34206D1D1E9056725F4405577
:1040C8003E4345EA06154E685D60DA61DE631C62B0
:1040D800DC690D6944F00804DC61D96921F0040148
:1040E800D961DA692A43DA61002380F83C30F0BCF0
:1040F8001846704702207047CE6824F0800444EACE
:10410800061424F0400404E7CE6824F4006444EA6A
:10411800062424F48064CFE706F58066B3423FF4B2
:1041280066AE06F58066B3427FF46DAE5FE600BF0B
:10413800002C014090F83C30012B5AD00222036831
:10414800F0B480F83D209D680A684D4C402A04EA86
:1041580005044FF0010580F83C509C6074D04AD9A2
:10416800602A2DD056D9702A1AD0B2F5005F0ED128
:10417800D1E90152CC6899682A4342EA042221F421
:104188007F410A439A609A6842F480429A60002309
:10419800012280F83D2080F83C30F0BC184670477A
:1041A800D1E90152CC6899682A4342EA042221F4F1
:1041B8007F410A439A609A6842F077029A60E6E77C
:1041C8001C6A4D68CE6824F010041C6299691A6A4A
:1041D80021F4704122F0A00242EA051241EA0631B8
:1041E80099611A629A6822F0700242F067029A6036
:1041F800CDE702207047102A04D03DD9202A01D0EB
:10420800302AC4D1996842F0070221F070010A43AC
:104218009A60BCE7502ABAD11D6A1E6A4C68CF68FA
:1042280026F001061E629A6925F00A0122F0F002C2
:1042380042EA071221439A6119629A6822F07002D1
:1042480042F057029A60A2E71D6A1E6A4C68CF685E
:1042580026F001061E629A6925F00A0122F0F00292
:1042680042EA071221439A6119629A6822F07002A1
:1042780042F047029A608AE7002AC3D087E700BF66
:104288008800FEFF704700BF704700BF704700BF3F
:10429800704700BF03681A69910710B5044602D534
:1042A800DA68920768D41A69520702D5DA685007A3
:1042B8004FD41A69110702D5DA68120737D41A6978
:1042C800D00602D5DA68D1061ED41A69D20702D5FB
:1042D800DA68D00769D41A69110602D5DA681206B5
:1042E8006BD41A69D00502D5DA6811066DD41A693B
:1042F800520602D5DA6850066FD41A69910602D5BB
:10430800DA68920649D410BD6FF010021A61DB69B1
:10431800082213F4407F227720466FD1FFF7B2FFBF
:104328002046FFF7B3FF002223682277CDE76FF01E
:1043380008021A61DB6904229B07227720465AD1BA
:10434800FFF7A0FF2046FFF7A1FF0022236822778E
:10435800B5E76FF004021A619B69022213F4407FEB
:104368002277204644D1FFF78DFF2046FFF78EFFC6
:104378000022236822779CE76FF002021A619B698A
:1043880001229907027730D1FFF77CFF2046FFF71B
:104398007DFF00222368227785E76FF02002204600
:1043A8001A61BDE8104000F031B96FF001021A61DE
:1043B8002046FCF785F823688DE76FF080021A61C4
:1043C800204600F025F923688BE76FF480721A61A4
:1043D800204600F01FF9236889E76FF040021A6150
:1043E8002046FFF755FF236887E7FFF74DFFD0E723
:1043F800FFF74AFFBCE7FFF747FFA6E7FFF744FFD1
:1044080091E700BF002941D190F84430012B49D1F0
:10441800022380F8443003680422186A01F01F015F
:1044280002FA01F120EA010010B418621A6A284C55
:10443800114319625A6CA34242F400425A6415D0DF
:10444800B3F1804F12D0234A93420FD002F5806215
:1044580093420BD002F58062934207D002F5943262
:10446800934203D002F54062934207D199681A4AF1
:104478000A40062A18D0B2F5803F15D01A685DF8B0
:10448800044B42F0010200201A60704704290FD043
:10449800082915D090F84730012B03D1022380F862
:1044A8004730B8E70120704700205DF8044B70479B
:1044B80090F84530012BF5D1022380F84530AAE762
:1044C80090F84630012BEDD1022380F84630A2E760
:1044D800002C0140000400400700010090F83C3027
:1044E800012B47D0F0B40368234C0E68022280F8F1
:1044F8003D200125A3425A6880F83C509D6827D08A
:1045080004F50064A3422CD022F070023243B3F1C8
:10451800804F5A600ED0194A93420BD002F5806240
:10452800934207D002F58062934203D002F59A3293
:10453800934204D18A6825F0800515439D600023C5
:10454800012280F83D2080F83C30F0BC18467047C6
:104558004C6822F47002224322F0700232435A60FF
:10456800E8E74F6822F470043C4324F070043443B5
:104578005C60DFE702207047002C01400004004027
:1045880090F83C30012B3CD030B4D1E902530246BC
:1045980023F44073D1E900042B4323F480632343BD
:1045A80023F40063D1E90454034323F480532B43D9
:1045B80023F40053886A8D69234323F4804303431B
:1045C800114C106823F47023A04243EA05430AD033
:1045D80004F50064A04206D00021436430BC0846BC
:1045E80082F83C1070474D6A23F47003D1E9074103
:1045F80043EA055323F08073234323F000730B43EE
:10460800EAE70220704700BF002C0140704700BF56
:10461800704700BF704700BF436ADA0710B406D579
:104628000168846A4A6822F4003222434A609C077F
:1046380006D50168C46A4A6822F4803222434A6077
:10464800590706D50168046B4A6822F48022224380
:104658004A601A0706D50168446B4A6822F400428A
:1046680022434A60DC0606D50168846B8A6822F416
:10467800805222438A60990606D50168C46B8A680D
:1046880022F4005222438A605A0609D50168046C54
:104698004A6822F480122243B4F5801F4A600BD086
:1046A8001B0606D50268816C536823F400230B436C
:1046B80053605DF8044B70474A68446C22F4C002AA
:1046C80022434A60ECE700BF002856D0F8B5436F94
:1046D8000446002B4CD023682669BB492422626714
:1046E8001868A26820F00100186060691D683243EC
:1046F8000243E069294002430A431A605A68E568A0
:10470800B24922F440522A435A608B42A2699968FE
:1047180035D0266AAE4D21F4306132430A43AB42AC
:104728009A6045D0AB4A934264D0AB4A934200F0BA
:104738002581AA4A934200F0E180A94A934212D106
:10474800A84BD3F8883003F44073B3F5807F00F0AA
:10475800CB8040F2E880B3F5007F00F08781B3F5A5
:10476800407F00F0D9800023C4E918330120F8BD48
:1047780080F87030FCF776FEADE70120704721F431
:10478800306198480A439A60D0F8883003F440634F
:10479800B3F5806F00F0628140F23881B3F5006FA5
:1047A80000F06F81B3F5406FDDD14FF4004034E184
:1047B8008C4B8D4AD3F8883003F00303D35CB0F5F3
:1047C800004F00F0E880082BCDD801A252F823F062
:1047D800FF4800080D480008714A00086F470008A4
:1047E800F94800086F4700086F4700086F4700083E
:1047F800294900087B4B7D4AD3F8883003F00C0325
:10480800D35CDCE7FEF700FC002800F0B3806368A7
:1048180000EB5300B0FBF3F080B2A0F110024FF6AA
:10482800EF739A429FD822680023D060C4E91833F6
:10483800636A002B40F09A8023685A6822F49042F9
:104848005A609A6822F02A029A601A68002142F097
:1048580001021A60E167FCF7DBFE23681A6811079A
:10486800064609D41A6850072BD420230020636712
:1048780084F87000A367F8BDDD6915F40015F1D15F
:10488800FCF7C6FE2368801BB0F1007F1A6880F031
:10489800AF805207F0D5DA691705EDD54FF40062FD
:1048A8001A621A6822F4D0721A609968202221F0DC
:1048B800010199600320626784F87050A267E2677B
:1048C800F8BDDD6915F48005CFD1FCF7A1FE23689A
:1048D800801BB0F1007F1A6880F08A805107F0D5FC
:1048E800DA691205EDD5D9E7B0F5004F00F0C380BD
:1048F800FDF716FF88E7FEF775FB85E7394BD3F818
:10490800883003F0C003402BEED00CD9802B00F088
:10491800AD80C02B7FF427AFB0F5004F00F0AE801C
:104928004FF4004073E7002B7FF41DAFB0F5004F44
:10493800E1D1FEF757FBE8B14300626803EB52038D
:10494800B3FBF2F39AB2A2F110004FF6EF7188426E
:104958003FF609AF23F00F03C2F342029BB221686E
:1049680013430022CB60C4E9182261E72046FFF711
:1049780053FE61E70023C4E9183359E7194BD3F80C
:10498800883003F03003102BAED0CCD9202B6DD05B
:10499800302BC1D0E7E6082B3FF6E5AE01A252F86E
:1049A80023F000BF3B4900086B4A00087B4A000817
:1049B8006F4700087F4A00086F4700086F470008E4
:1049C8006F470008854A0008F369FFEF0080004040
:1049D800003801400044004000480040004C0040BE
:1049E8000050004000100240B04C0008B44C0008D1
:1049F80022F4D0721A609A68202122F001029A608B
:104A08000320616784F87050A167F8BD002B7FF41C
:104A1800AAAEFEF7E7FA0028ACD0626802EB4203C0
:104A280083423FF6A0AEB0EB023F3FF69CAE56087D
:104A38004FF480730027E3FB006700252B463046C0
:104A48003946FBF7BDFB104BA0F540729A423FF682
:104A58008AAE2368D860C4E91855E9E6FDF760FE18
:104A6800D9E7FEF7D1FA66E70848D0E6B0F5004F77
:104A7800FAD1074B61E7FDF753FE5CE74FF480334B
:104A88005BE70248C9E700BFFFFC0F000024F40001
:104A98000048E801DFF834D0FCF744FD002103E0CA
:104AA8000B4B5B58435004310A480B4B42189A424F
:104AB800F6D30A4A02E0002342F8043B084B9A4224
:104AC800F9D300F095F8FCF78BF9FEE70080012098
:104AD800D85400080000002010000020100000201A
:104AE800E47F0020FEE700009FED1E7AB5EEC00AC5
:104AF80020EE077AF1EE10FAFDEEC77A2CD4F8EE24
:104B0800E77ADFED196A194A77EE677AB7EE000A95
:104B180067EEA67AF4EEE67AF1EE10FAA8BF77EE21
:104B2800E67ABCEEE77A17EE103AC3F3080307EE0D
:104B3800103AB8EE477A02EB830177EEC77AD1EDE7
:104B4800016A30EE677A91ED000A67EEA67A27EEE1
:104B5800000A30EE270A704717EE903A013B07EE3D
:104B6800903ACCE783F9223E00000044C44C000888
:104B7800DFED1C7A20EE270AF5EE007A30EE270AE0
:104B8800B5EEC00AF1EE10FAFDEEC07A04D517EEC4
:104B9800903A013B07EE903AF8EEE77ADFED126AB9
:104BA800124A30EE670AB7EE007A20EE260AFCEECB
:104BB800C07A17EE903AC3F3080307EE903AF8EE7E
:104BC800677A02EB830170EE677AD1ED016A91EDA5
:104BD800000A37EE677A67EEA67A27EE000A30EE0B
:104BE800270A704783F9223E00000044C44C00089D
:104BF80070B50D4E0D4CA41BA4100025A54209D17B
:104C08000B4E0C4C00F020F8A41BA4100025A54264
:104C180005D170BD56F8253098470135EEE756F8AE
:104C2800253098470135F2E7D0540008D0540008E1
:104C3800D0540008D454000802440346934200D1DB
:104C4800704703F8011BF9E7F8B500BFF8BC08BCCA
:104C58009E467047F8B500BFF8BC08BC9E46704732
:104C68000000000000000000010203040607080914
:104C78000000000001020304A0860100400D0300AB
:104C8800801A060000350C0040420F0080841E0088
:104C980000093D0000127A000024F40000366E017D
:104CA8000048E801006CDC02010402080010101042
:104CB800041010100210101008000000000000007E
:104CC800920E493CB10AC93C2BC3163D2EFB483D08
:104CD800752B7B3D04A9963D80B6AF3D36BDC83DDA
:104CE8002FBCE13D73B2FA3D87CF093E8340163EA3
:104CF800B5AB223EA2102F3ECF6E3B3EC2C5473E0B
:104D08000115543E135C603E7F9A6C3ECCCF783ED2
:104D1800C07D823E938E883E229A8E3E32A0943E7B
:104D280086A09A3EE59AA03E128FA63ED47CAC3E61
:104D3800EF63B23E2A44B83E491DBE3E15EFC33E5E
:104D480053B9C93ECA7BCF3E4136D53E80E8DA3EEC
:104D58004F92E03E7533E63EBBCBEB3EEA5AF13E5E
:104D6800CBE0F63E275DFC3EE4E7003F3D9C033F79
:104D7800824B063F9BF5083F6B9A0B3FDA390E3F93
:104D8800CDD3103F2A68133FD9F6153FC07F183F8F
:104D9800C6021B3FD17F1D3FCBF61F3F9967223FBD
:104DA80025D2243F5636273F1594293F4AEB2B3FFF
:104DB800DE3B2E3FBB85303FC9C8323FF304353F49
:104DC800233A373F4268393F3B8F3B3FF9AE3D3F7F
:104DD80067C73F3F70D8413F01E2433F03E4453F87
:104DE80065DE473F12D1493FF8BB4B3F029F4D3F1D
:104DF800207A4F3F3D4D513F4918533F31DB543FD7
:104E0800E595563F5348583F6AF2593F1A945B3F1D
:104E1800532D5D3F05BE5E3F2146603F97C5613F0C
:104E28005A3C633F59AA643F880F663FD86B673F77
:104E38003CBF683FA7096A3F0C4B6B3F5E836C3FE2
:104E480093B26D3F9ED86E3F73F56F3F0809713F6F
:104E58005213723F4714733FDD0B743F0BFA743FD4
:104E6800C6DE753F07BA763FC58B773FF853783F64
:104E78009812793F9DC7793F02737A3FBE147B3FF2
:104E8800CDAC7B3F283B7C3FC9BF7C3FAC3A7D3FE4
:104E9800CCAB7D3F23137E3FB0707E3F6DC47E3F19
:104EA800580E7F3F6D4E7F3FAB847F3F0FB17F3FF2
:104EB80097D37F3F43EC7F3F11FB7F3F0000803F4C
:104EC80011FB7F3F43EC7F3F97D37F3F0FB17F3F7D
:104ED800AB847F3F6D4E7F3F580E7F3F6DC47E3F52
:104EE800B0707E3F23137E3FCCAB7D3FAC3A7D3F15
:104EF800C9BF7C3F283B7C3FCDAC7B3FBE147B3F8A
:104F080002737A3F9DC7793F9812793FF853783FEB
:104F1800C58B773F07BA763FC6DE753F0BFA743FFD
:104F2800DD0B743F4714733F5213723F0809713FFA
:104F380073F56F3F9ED86E3F93B26D3F5E836C3FB3
:104F48000C4B6B3FA7096A3F3CBF683FD86B673F74
:104F5800880F663F59AA643F5A3C633F97C5613F33
:104F68002146603F05BE5E3F532D5D3F1A945B3F6F
:104F78006AF2593F5348583FE595563F31DB543F55
:104F88004918533F3D4D513F207A4F3F029F4D3FB7
:104F9800F8BB4B3F12D1493F65DE473F03E4453F2D
:104FA80001E2433F70D8413F67C73F3FF9AE3D3FFD
:104FB8003B8F3B3F4268393F233A373FF304353F45
:104FC800C9C8323FBB85303FDE3B2E3F4AEB2B3F03
:104FD8001594293F5636273F25D2243F9967223F0B
:104FE800CBF61F3FD17F1D3FC6021B3FC07F183F36
:104FF800D9F6153F2A68133FCDD3103FDA390E3F53
:105008006B9A0B3F9BF5083F824B063F3D9C033F45
:10501800E4E7003F275DFC3ECBE0F63EEA5AF13E6E
:10502800BBCBEB3E7533E63E4F92E03E80E8DA3E7E
:105038004136D53ECA7BCF3E53B9C93E15EFC33E74
:10504800491DBE3E2A44B83EEF63B23ED47CAC3E16
:10505800128FA63EE59AA03E86A09A3E32A0943EC4
:10506800229A8E3E938E883EC07D823ECCCF783E7B
:105078007F9A6C3E135C603E0115543EC2C5473EA4
:10508800CF6E3B3EA2102F3EB5AB223E8340163E6C
:1050980087CF093E73B2FA3D2FBCE13D36BDC83D0E
:1050A80080B6AF3D04A9963D752B7B3D2EFB483D50
:1050B8002BC3163DB10AC93C920E493C00000000C2
:1050C800920E49BCB10AC9BC2BC316BD2EFB48BD04
:1050D800752B7BBD04A996BD80B6AFBD36BDC8BDD6
:1050E8002FBCE1BD73B2FABD87CF09BE834016BE9F
:1050F800B5AB22BEA2102FBECF6E3BBEC2C547BE07
:10510800011554BE135C60BE7F9A6CBECCCF78BECE
:10511800C07D82BE938E88BE229A8EBE32A094BE77
:1051280086A09ABEE59AA0BE128FA6BED47CACBE5D
:10513800EF63B2BE2A44B8BE491DBEBE15EFC3BE5A
:1051480053B9C9BECA7BCFBE4136D5BE80E8DABEE8
:105158004F92E0BE7533E6BEBBCBEBBEEA5AF1BE5A
:10516800CBE0F6BE275DFCBEE4E700BF3D9C03BF75
:10517800824B06BF9BF508BF6B9A0BBFDA390EBF8F
:10518800CDD310BF2A6813BFD9F615BFC07F18BF8B
:10519800C6021BBFD17F1DBFCBF61FBF996722BFB9
:1051A80025D224BF563627BF159429BF4AEB2BBFFB
:1051B800DE3B2EBFBB8530BFC9C832BFF30435BF45
:1051C800233A37BF426839BF3B8F3BBFF9AE3DBF7B
:1051D80067C73FBF70D841BF01E243BF03E445BF83
:1051E80065DE47BF12D149BFF8BB4BBF029F4DBF19
:1051F800207A4FBF3D4D51BF491853BF31DB54BFD3
:10520800E59556BF534858BF6AF259BF1A945BBF19
:10521800532D5DBF05BE5EBF214660BF97C561BF08
:105228005A3C63BF59AA64BF880F66BFD86B67BF73
:105238003CBF68BFA7096ABF0C4B6BBF5E836CBFDE
:1052480093B26DBF9ED86EBF73F56FBF080971BF6B
:10525800521372BF471473BFDD0B74BF0BFA74BFD0
:10526800C6DE75BF07BA76BFC58B77BFF85378BF60
:10527800981279BF9DC779BF02737ABFBE147BBFEE
:10528800CDAC7BBF283B7CBFC9BF7CBFAC3A7DBFE0
:10529800CCAB7DBF23137EBFB0707EBF6DC47EBF15
:1052A800580E7FBF6D4E7FBFAB847FBF0FB17FBFEE
:1052B80097D37FBF43EC7FBF11FB7FBF000080BF48
:1052C80011FB7FBF43EC7FBF97D37FBF0FB17FBF79
:1052D800AB847FBF6D4E7FBF580E7FBF6DC47EBF4E
:1052E800B0707EBF23137EBFCCAB7DBFAC3A7DBF11
:1052F800C9BF7CBF283B7CBFCDAC7BBFBE147BBF86
:1053080002737ABF9DC779BF981279BFF85378BFE7
:10531800C58B77BF07BA76BFC6DE75BF0BFA74BFF9
:10532800DD0B74BF471473BF521372BF080971BFF6
:1053380073F56FBF9ED86EBF93B26DBF5E836CBFAF
:105348000C4B6BBFA7096ABF3CBF68BFD86B67BF70
:10535800880F66BF59AA64BF5A3C63BF97C561BF2F
:10536800214660BF05BE5EBF532D5DBF1A945BBF6B
:105378006AF259BF534858BFE59556BF31DB54BF51
:10538800491853BF3D4D51BF207A4FBF029F4DBFB3
:10539800F8BB4BBF12D149BF65DE47BF03E445BF29
:1053A80001E243BF70D841BF67C73FBFF9AE3DBFF9
:1053B8003B8F3BBF426839BF233A37BFF30435BF41
:1053C800C9C832BFBB8530BFDE3B2EBF4AEB2BBFFF
:1053D800159429BF563627BF25D224BF996722BF07
:1053E800CBF61FBFD17F1DBFC6021BBFC07F18BF32
:1053F800D9F615BF2A6813BFCDD310BFDA390EBF4F
:105408006B9A0BBF9BF508BF824B06BF3D9C03BF41
:10541800E4E700BF275DFCBECBE0F6BEEA5AF1BE6A
:10542800BBCBEBBE7533E6BE4F92E0BE80E8DABE7A
:105438004136D5BECA7BCFBE53B9C9BE15EFC3BE70
:10544800491DBEBE2A44B8BEEF63B2BED47CACBE12
:10545800128FA6BEE59AA0BE86A09ABE32A094BEC0
:10546800229A8EBE938E88BEC07D82BECCCF78BE77
:105478007F9A6CBE135C60BE011554BEC2C547BEA0
:10548800CF6E3BBEA2102FBEB5AB22BE834016BE68
:1054980087CF09BE73B2FABD2FBCE1BD36BDC8BD0A
:1054A80080B6AFBD04A996BD752B7BBD2EFB48BD4C
:1054B8002BC316BDB10AC9BC920E49BC00000080BE
:0854C80030ADFF7F0100000080
:0454D000AD01000822
:0454D4008901000842
:1054D8000000803F00093D000100000010000000AE
:0400000508004A9D08
:00000001FF
